:020000040800F2
:10000000002800206D180008FD17000803180008DC
:10001000091800080F180008151800080000000053
:100020000000000000000000000000001B18000895
:100030002718000800000000331800083F180008C7
:10004000B5180008B5180008B5180008B51800085C
:10005000B5180008B5180008B5180008B51800084C
:10006000B5180008B5180008B5180008B51800083C
:10007000B5180008B5180008B5180008B51800082C
:10008000B5180008B5180008B5180008B51800081C
:10009000B5180008B5180008B5180008B51800080C
:1000A000B5180008B5180008B5180008B5180008FC
:1000B0004D180008B518000800000000B518000829
:1000C000B51800080000000000000000B518000886
:1000D00000000000B5180008B51800080000000076
:1000E000B5180008B5180008B51800080000000091
:1000F0000000000000000000000000000000000000
:0C01000000000000000000005FF808F1A3
:10010C0010B5054C237833B9044B13B10448AFF345
:10011C0000800123237010BD280000200000000087
:10012C00D42E000808B5034B1BB103490348AFF3A9
:10013C00008008BD000000002C000020D42E000818
:10014C0080B500AF01220221074801F0B2FE002267
:10015C000421054801F0ADFE00220821024801F0FF
:10016C00A8FE00BF80BD00BF0008014080B500AFF5
:10017C0000220221074801F09CFE012204210548BF
:10018C0001F097FE00220821024801F092FE00BF08
:10019C0080BD00BF0008014080B500AF00220221E5
:1001AC00074801F086FE00220421054801F081FE7B
:1001BC0001220821024801F07CFE00BF80BD00BF77
:1001CC000008014080B500AF01221021074801F062
:1001DC0070FE00222021054801F06BFE0022402118
:1001EC00024801F066FE00BF80BD00BF0008014060
:1001FC0080B500AF00221021074801F05AFE012201
:10020C002021054801F055FE00224021024801F052
:10021C0050FE00BF80BD00BF0008014080B500AF9C
:10022C0000221021074801F044FE0022202105483D
:10023C0001F03FFE01224021024801F03AFE00BFCE
:10024C0080BD00BF0008014080B500AF0022022134
:10025C000E4801F02EFE002204210C4801F029FE6C
:10026C0000220821094801F024FE00221021074831
:10027C0001F01FFE00222021044801F01AFE00228A
:10028C004021024801F015FE00BF80BD000801406E
:10029C0080B483B000AF00237B6016E00F4A7B680C
:1002AC00134401221A700E4A7B68134401221A70FF
:1002BC000C4A7B68134401221A700B4A7B68134466
:1002CC0001221A707B6801337B607B68022BE5DDB1
:1002DC0000BF00BF0C37BD4680BC704744000020F7
:1002EC00480000204C0000205000002080B483B057
:1002FC0000AF78607B68022B11D07B68022B12DC7C
:10030C007B68002B03D07B68012B04D00BE0094BDE
:10031C0001221A6008E0084B01221A6004E0074B26
:10032C0001221A6000E000BF00BF0C37BD4680BC44
:10033C00704700BF54000020580000205C000020D3
:10034C0080B400AF064B1B68012B04D1044B002278
:10035C001A60012300E000231846BD4680BC70479C
:10036C005400002080B400AF064B1B68012B04D155
:10037C00044B00221A60012300E000231846BD46FE
:10038C0080BC70475800002080B400AF064B1B683F
:10039C00012B04D1044B00221A60012300E000233E
:1003AC001846BD4680BC70475C00002080B582B00A
:1003BC0000AF00237B608BE04A4A7B6813441978BA
:1003CC00494A7B6813440A461A70484A7B681344AE
:1003DC001978444A7B6813440A461A707B68022BCE
:1003EC0023D07B68022B2DDC7B68002B03D07B6831
:1003FC00012B0DD026E04FF400513D4801F042FD99
:10040C0003461946394A7B6813440A461A701AE0A7
:10041C004FF40061374801F035FD03461946334A65
:10042C007B6813440A461A700DE04FF48051314832
:10043C0001F028FD034619462C4A7B6813440A46F2
:10044C001A7000E000BF284A7B6813441A782549CB
:10045C007B680B441B789A4237D1224A7B68134441
:10046C001A7822497B680B441B789A422DD1224A78
:10047C007B6813441A781D497B680B441B789A429D
:10048C0015D01A4A7B68134419781B4A7B681344AD
:10049C000A461A70154A7B6813441B78002B14D13A
:1004AC007868FFF723FF154BC8221A600DE0134B39
:1004BC001B68013B114A1360104B1B68002B04DCBA
:1004CC000D4A7B68134401221A707B6801337B60F0
:1004DC007B68022B7FF770AF00BF00BF0837BD46AB
:1004EC0080BD00BF48000020440000204C000020CC
:1004FC0000100140000801405000002000000020C6
:10050C0080B582B000AF78607B68002B23D10022CD
:10051C000121C24801F0CDFC00220221BF4801F0AC
:10052C00C8FC00220421BD4801F0C3FC00220821B4
:10053C00BA4801F0BEFC00221021B84801F0B9FC09
:10054C0000222021B54801F0B4FC01224021B3481F
:10055C0001F0AFFC5DE17B68012B23D1012201216D
:10056C00AE4801F0A6FC00220221AC4801F0A1FC2F
:10057C0000220421A94801F09CFC01220821A74873
:10058C0001F097FC01221021A44801F092FC0122F9
:10059C002021A24801F08DFC012240219F4801F04E
:1005AC0088FC36E17B68022B23D1002201219B4879
:1005BC0001F07FFC00220221984801F07AFC012214
:1005CC000421964801F075FC00220821934801F0A3
:1005DC0070FC00221021914801F06BFC01222021BB
:1005EC008E4801F066FC002240218C4801F061FC31
:1005FC000FE17B68032B23D100220121874801F0F6
:10060C0058FC00220221854801F053FC00220421F1
:10061C00824801F04EFC00220821804801F049FC80
:10062C00012210217D4801F044FC012220217B484D
:10063C0001F03FFC00224021784801F03AFCE8E050
:10064C007B68042B23D101220121744801F031FC79
:10065C0000220221714801F02CFC002204216F4879
:10066C0001F027FC012208216C4801F022FC012238
:10067C0010216A4801F01DFC00222021674801F07E
:10068C0018FC00224021654801F013FCC1E07B6896
:10069C00052B23D100220121604801F00AFC012224
:1006AC0002215E4801F005FC002204215B4801F0A8
:1006BC0000FC00220821594801F0FBFB012210210B
:1006CC00564801F0F6FB00222021544801F0F1FBC2
:1006DC0000224021514801F0ECFB9AE07B68062B8C
:1006EC0023D1002201214D4801F0E3FB012202211C
:1006FC004A4801F0DEFB00220421484801F0D9FBF6
:10070C0000220821454801F0D4FB00221021434867
:10071C0001F0CFFB00222021404801F0CAFB00224F
:10072C0040213E4801F0C5FB73E07B68072B23D1C9
:10073C0000220121394801F0BCFB0022022137487C
:10074C0001F0B7FB00220421344801F0B2FB012276
:10075C000821324801F0ADFB012210212F4801F095
:10076C00A8FB012220212D4801F0A3FB01224021EE
:10077C002A4801F09EFB4CE07B68082B23D1002219
:10078C000121264801F095FB00220221234801F0AB
:10079C0090FB00220421214801F08BFB0022082150
:1007AC001E4801F086FB002210211C4801F081FB41
:1007BC0000222021194801F07CFB0022402117481F
:1007CC0001F077FB25E07B68092B22D10022012167
:1007DC00124801F06EFB00220221104801F069FB67
:1007EC00002204210D4801F064FB002208210B4873
:1007FC0001F05FFB01221021084801F05AFB002296
:10080C002021064801F055FB00224021034801F04D
:10081C0050FB00BF0837BD4680BD00BF000C014037
:10082C0080B582B000AF78607B68002B2AD10022A3
:10083C004FF48071CB4801F03CFB00224FF4007167
:10084C00C84801F036FB00224FF48061C54801F026
:10085C0030FB00224FF40061C24801F02AFB002259
:10086C004FF48051BF4801F024FB00224FF400519B
:10087C00BC4801F01EFB01224FF48041B94801F045
:10088C0018FB9EE17B68012B2AD101224FF4807169
:10089C00B44801F00EFB00224FF40071B14801F096
:1008AC0008FB00224FF48061AE4801F002FB0122EC
:1008BC004FF40061AB4801F0FCFA01224FF4805177
:1008CC00A84801F0F6FA01224FF40051A54801F0B6
:1008DC00F0FA01224FF48041A24801F0EAFA70E1EB
:1008EC007B68022B2AD100224FF480719D4801F0C5
:1008FC00E0FA00224FF400719A4801F0DAFA012272
:10090C004FF48061974801F0D4FA00224FF4006153
:10091C00944801F0CEFA00224FF48051914801F036
:10092C00C8FA01224FF400518E4801F0C2FA00229D
:10093C004FF480418B4801F0BCFA42E17B68032BF9
:10094C002AD100224FF48071864801F0B2FA0022BD
:10095C004FF40071834801F0ACFA00224FF480612F
:10096C00804801F0A6FA00224FF400617D4801F0A6
:10097C00A0FA01224FF480517A4801F09AFA012230
:10098C004FF40051774801F094FA00224FF4804163
:10099C00744801F08EFA14E17B68042B2AD10122F1
:1009AC004FF480716F4801F084FA00224FF400710B
:1009BC006C4801F07EFA00224FF48061694801F026
:1009CC0078FA01224FF40061664801F072FA0122B4
:1009DC004FF48051634801F06CFA00224FF400513F
:1009EC00604801F066FA00224FF480415D4801F046
:1009FC0060FAE6E07B68052B2AD100224FF4807167
:100A0C00584801F056FA01224FF40071554801F094
:100A1C0050FA00224FF48061524801F04AFA002249
:100A2C004FF400614F4801F044FA01224FF4805119
:100A3C004C4801F03EFA00224FF40051494801F0B5
:100A4C0038FA00224FF48041464801F032FAB8E0FF
:100A5C007B68062B2AD100224FF48071414801F0AB
:100A6C0028FA01224FF400713E4801F022FA0022CC
:100A7C004FF480613B4801F01CFA00224FF40061F6
:100A8C00384801F016FA00224FF48051354801F035
:100A9C0010FA00224FF40051324801F00AFA0022F9
:100AAC004FF480412F4801F004FA8AE07B68072B51
:100ABC002AD100224FF480712A4801F0FAF9002261
:100ACC004FF40071274801F0F4F900224FF48061D3
:100ADC00244801F0EEF901224FF40061214801F0A5
:100AEC00E8F901224FF480511E4801F0E2F901228D
:100AFC004FF400511B4801F0DCF901224FF4804106
:100B0C00184801F0D6F95CE07B68082B2CD1002248
:100B1C004FF48071134801F0CCF900224FF40071AE
:100B2C00104801F0C6F900224FF480610D4801F025
:100B3C00C0F900224FF400610A4801F0BAF9002212
:100B4C004FF48051074801F0B4F900224FF40051E2
:100B5C00044801F0AEF900224FF48041014801F045
:100B6C00A8F92EE0000C01407B68092B29D100224A
:100B7C004FF48071154801F09CF900224FF400717C
:100B8C00124801F096F900224FF480610F4801F0F1
:100B9C0090F900224FF400610C4801F08AF901220F
:100BAC004FF48051094801F084F900224FF40051B0
:100BBC00064801F07EF900224FF48041034801F011
:100BCC0078F900BF0837BD4680BD00BF000C01405E
:100BDC0080B582B000AF78607B68002B03D07B6857
:100BEC00012B18D02FE000228021194801F061F967
:100BFC0001224FF48071164801F05BF901224FF489
:100C0C000071134801F055F901224FF4806110482E
:100C1C0001F04FF917E0012280210D4801F049F94C
:100C2C0000224FF480710A4801F043F901224FF47D
:100C3C000071074801F03DF901224FF4806104482E
:100C4C0001F037F900BF00BF0837BD4680BD00BFBB
:100C5C000008014080B500AF954B1B68013B082B89
:100C6C0000F2BC8301A252F823F000BF9D0C0008D7
:100C7C00E9130008AD0C0008AD0D0008E90E0008E2
:100C8C00E90F0008F110000809120008EF12000823
:100C9C00874B03221A60FFF77FFAFFF793FAACE356
:100CAC00844B1B68012B1FD1834B1B68002B18DB5B
:100CBC00814B1B68013B804A1360804B1B68013BD6
:100CCC007E4A13607C4B1B68002B0ADA784B04229B
:100CDC001A607B4B1B68784A1360FFF747FAFFF7E3
:100CEC0071FA642000F0E8FC764B1B68012B4DD1A7
:100CFC00754B1B68002B1CD16F4B1B68734A82FB16
:100D0C0003129210DB17D31A1846FFF7F9FB6B4B43
:100D1C001B686E4A82FB03129210DB17D31A18461B
:100D2C00FFF77EFD0020FFF753FF674B01221A608F
:100D3C0029E0654B1B68012B25D15F4B1A68634B6F
:100D4C0083FB02139910D317C91A0B469B000B4453
:100D5C005B00D11A0846FFF7D3FB584B1A685B4B64
:100D6C0083FB02139910D317C91A0B469B000B4433
:100D7C005B00D11A0846FFF753FD0120FFF728FF4F
:100D8C00514B00221A60142000F0AAFCFFF7D8FA8D
:100D9C000346002B00F02483454B07221A601FE307
:100DAC00444B1B68012B23D1494B1B68002B1CDBCC
:100DBC00474B1B68013B464A1360404B1B68013B89
:100DCC003E4A1360424B1B68002B0EDA384B05224F
:100DDC001A60404B1B683E4A13603F4B1B68374AF6
:100DEC001360FFF71BFAFFF7ABF9642000F064FC0B
:100DFC00344B1B68012B4DD1334B1B68002B1CD182
:100E0C00334B1B68314A82FB03129210DB17D31A47
:100E1C001846FFF775FB294B1B682C4A82FB031203
:100E2C009210DB17D31A1846FFF7FAFC0020FFF7D5
:100E3C00CFFE254B01221A6029E0234B1B68012BA6
:100E4C0025D1234B1A68214B83FB02139910D3171E
:100E5C00C91A0B469B000B445B00D11A0846FFF7DE
:100E6C004FFB164B1A68194B83FB02139910D317BF
:100E7C00C91A0B469B000B445B00D11A0846FFF7BE
:100E8C00CFFC0120FFF7A4FE0F4B00221A601420A8
:100E9C0000F026FCFFF754FA0346002B00F0A28268
:100EAC00034B07221A60192000F006FC9AE200BFDF
:100EBC0068000020B8000020040000200C00002076
:100ECC0010000020C00000206000002067666666ED
:100EDC00080000201800002014000020A34B1B6801
:100EEC00012B1FD1A24B1B68002B18DBA04B1B68DE
:100EFC00013B9F4A13609F4B1B68013B9D4A13604B
:100F0C009B4B1B68002B0ADA9B4B06221A609B4BEF
:100F1C001B68974A1360FFF76BF9FFF711F9642010
:100F2C0000F0CAFB964B1B68012B4DD1954B1B68EF
:100F3C00002B1CD18F4B1B68934A82FB031292101F
:100F4C00DB17D31A1846FFF7DBFA894B1B688E4A5E
:100F5C0082FB03129210DB17D31A1846FFF760FCC2
:100F6C000020FFF735FE874B01221A6029E0854BE4
:100F7C001B68012B25D17F4B1A68834B83FB021313
:100F8C009910D317C91A0B469B000B445B00D11A5E
:100F9C000846FFF7B5FA764B1A687B4B83FB0213B6
:100FAC009910D317C91A0B469B000B445B00D11A3E
:100FBC000846FFF735FC0120FFF70AFE714B0022B3
:100FCC001A60142000F08CFBFFF7BAF90346002BD3
:100FDC0000F00A82684B07221A6005E2634B1B681B
:100FEC00012B23D1694B1B68002B1CDB674B1B6847
:100FFC00013B664A13605F4B1B68013B5D4A136003
:10100C00624B1B68002B0EDA5B4B03221A60604BA1
:10101C001B685E4A13605F4B1B68564A1360FFF7F0
:10102C00BBF8FFF7CFF8642000F046FB544B1B686D
:10103C00012B4DD1534B1B68002B1CD14D4B1B6806
:10104C00514A82FB03129210DB17D31A1846FFF792
:10105C0057FA4E4B1B684C4A82FB03129210DB175B
:10106C00D31A1846FFF7DCFB0020FFF7B1FD454B08
:10107C0001221A6029E0434B1B68012B25D13D4B03
:10108C001A68414B83FB02139910D317C91A0B46EC
:10109C009B000B445B00D11A0846FFF731FA3B4B1F
:1010AC001A68394B83FB02139910D317C91A0B46D4
:1010BC009B000B445B00D11A0846FFF7B1FB0120E3
:1010CC00FFF786FD2F4B00221A60142000F008FB5E
:1010DC00FFF736F90346002B00F08881264B0722D8
:1010EC001A6083E1214B1B68012B13D12A4B1B681F
:1010FC00002B07D1FFF724F8FFF764F8264B0122E9
:10110C001A6004E0FFF7A0F8234B00221A601920A4
:10111C0000F0D2FAFFF726F90346002B0BD01D4B3B
:10112C001B6801331B4A13601A4B1B68632B02DDCF
:10113C00184B01221A60124B1B68012B4BD1114B1F
:10114C001B68002B2AD1134B1B680F4A82FB03121E
:10115C009210DB17D31A1846FFF7D2F90020FFF7CD
:10116C0037FD084B01221A6032E000BFB8000020A6
:10117C00040000200C00002068000020100000205B
:10118C00C000002060000020676666660800002032
:10119C00180000201400002064000020984B1B68ED
:1011AC00012B15D1974B1A68974B83FB021399109F
:1011BC00D317C91A0B469B000B445B00D11A084687
:1011CC00FFF79EF90120FFF703FD8D4B00221A60FB
:1011DC00142000F085FAFFF7D7F80346002B03D054
:1011EC00884B1B68894A1360FFF7AAF80346002B4B
:1011FC0000F0FE80864B08221A60F9E0854B1B68D4
:10120C00012B13D1844B1B68002B07D1FEF7AEFFCB
:10121C00FEF7EEFF804B01221A6004E0FFF714F892
:10122C007D4B00221A60192000F046FAFFF79AF85D
:10123C000346002B0BD0794B1B680133774A1360A4
:10124C00764B1B68632B02DD744B01221A60744BC6
:10125C001B68012B32D16A4B1B68002B11D16F4BD1
:10126C001B68694A82FB03129210DB17D31A1846CB
:10127C00FFF746F90020FFF7ABFC614B01221A6027
:10128C0019E05F4B1B68012B15D1644B1A685E4B40
:10129C0083FB02139910D317C91A0B469B000B44FE
:1012AC005B00D11A0846FFF72BF90120FFF790FCE1
:1012BC00534B00221A60142000F012FAFFF764F866
:1012CC000346002B03D0554B1B68564A1360FFF79F
:1012DC0037F80346002B00F08D804D4B09221A6025
:1012EC0088E04C4B1B68012B13D14B4B1B68002B1C
:1012FC0007D1FEF751FFFEF791FF474B01221A6011
:10130C0004E0FEF7A1FF444B00221A60192000F004
:10131C00D3F9FEF741FFFEF781FFFFF723F80346F1
:10132C00002B0BD0404B1B6801333F4A13603E4BE4
:10133C001B68632B02DD3C4B01221A60384B1B6887
:10134C00012B32D12E4B1B68002B11D1364B1B6855
:10135C002D4A82FB03129210DB17D31A1846FFF7A3
:10136C00CFF80020FFF734FC254B01221A6019E05E
:10137C00234B1B68012B15D12B4B1A68224B83FB7B
:10138C0002139910D317C91A0B469B000B445B0030
:10139C00D11A0846FFF7B4F80120FFF719FC184BD7
:1013AC0000221A60142000F09BF9FEF7EDFF0346B3
:1013BC00002B03D01C4B1B681C4A1360FEF7C0FFAC
:1013CC000346002B18D0192000F076F9104B03229D
:1013DC001A60FEF7E1FEFEF7F5FE0DE000BF0CE033
:1013EC0000BF0AE000BF08E000BF06E000BF04E059
:1013FC0000BF02E000BF00E000BF00BF80BD00BF27
:10140C006000002014000020676666660C00002057
:10141C0068000020B80000206400002018000020A4
:10142C00C000002008000020100000200400002054
:10143C0080B500AF00F03AFA00F026F800F0ACF8F6
:10144C0000F05EF80D4801F07BF9012280210C4878
:10145C0000F02FFD01224FF48071094800F029FDA6
:10146C00084B01221A60FEF713FF322000F024F91A
:10147C000A2000F035F9FFF7EDFBFCE76C000020CB
:10148C00000801406800002080B590B000AF07F163
:10149C00180328220021184601F0EAFC3B1D00220B
:1014AC001A605A609A60DA601A610223BB610123E8
:1014BC00BB621023FB6200237B6307F11803184601
:1014CC0000F010FD0346002B01D000F0EFF80F23C5
:1014DC007B600023BB600023FB6000233B61002387
:1014EC007B613B1D0021184600F07EFF0346002B5C
:1014FC0001D000F0DBF800BF4037BD4680BD0000D6
:10150C0080B586B000AF07F1080300221A605A605C
:10151C009A60DA603B4600221A605A601D4B4FF00D
:10152C0080421A601B4B41F63F725A60194B0022E5
:10153C009A60184B0922DA60164B00221A61154B7F
:10154C0000229A61134801F0ABF80346002B01D03E
:10155C0000F0ACF84FF48053BB6007F10803194658
:10156C000C4801F041FA0346002B01D000F09EF824
:10157C0000233B6000237B603B461946054801F085
:10158C000DFC0346002B01D000F090F800BF18377B
:10159C00BD4680BD6C00002080B588B000AF07F15F
:1015AC00100300221A605A609A60DA60354B9B690E
:1015BC00344A43F010039361324B9B6903F01003E0
:1015CC00FB60FB682F4B9B692E4A43F0040393612D
:1015DC002C4B9B6903F00403BB60BB68294B9B69D4
:1015EC00284A43F008039361264B9B6903F00803D8
:1015FC007B607B68002240F2FE71234800F059FCAE
:10160C0000224FF6FF71214800F053FC4FF40053B9
:10161C003B6100237B610123BB6107F11003194679
:10162C001B4800F0B3FA40F2FE733B6101237B616F
:10163C000023BB610223FB6107F11003194612481A
:10164C0000F0A4FA4FF6FF733B6101237B6100238A
:10165C00BB610223FB6107F1100319460B4800F034
:10166C0095FA4FF4C0533B6100237B610123BB61AE
:10167C0007F110031946044800F088FA00BF203720
:10168C00BD4680BD0010024000080140000C014026
:10169C000010014080B582B000AF7860FEF786FE86
:1016AC0000F032F800BF0837BD4680BD80B400AFF3
:1016BC0072B600BFFEE7000080B483B000AF786064
:1016CC00054A7B681360054B00221A6000BF0C377B
:1016DC00BD4680BC704700BFB4000020B80000209D
:1016EC0080B483B000AF7860054A7B681360054B0B
:1016FC0000221A6000BF0C37BD4680BC704700BF8B
:10170C00BC000020C000002080B400AF114B1B684F
:10171C00002B0BDD0F4B1B68013B0E4A13600D4B6E
:10172C001B68002B02DC0C4B01221A600B4B1B6854
:10173C00002B0BDD094B1B68013B084A1360074B60
:10174C001B68002B02DC064B01221A6000BFBD4651
:10175C0080BC7047B4000020B8000020BC00002002
:10176C00C000002080B483B000AF0E4B9B690D4AC3
:10177C0043F0010393610B4B9B6903F001037B6006
:10178C007B68084BDB69074A43F08053D361054BF8
:10179C00DB6903F080533B603B6800BF0C37BD46F0
:1017AC0080BC70470010024080B584B000AF7860F8
:1017BC007B681B68B3F1804F13D10C4BDB690B4A70
:1017CC0043F00103D361094BDB6903F00103FB60B8
:1017DC00FB68002200211C2000F0A1F91C2000F065
:1017EC00BAF900BF1037BD4680BD00BF00100240E3
:1017FC0080B400AFFEE780B400AFFEE780B400AF6A
:10180C00FEE780B400AFFEE780B400AFFEE780B423
:10181C0000AF00BFBD4680BC704780B400AF00BFB6
:10182C00BD4680BC704780B400AF00BFBD4680BCD5
:10183C00704780B500AF00F07FF800BF80BD00009E
:10184C0080B500AF024800F0C7FF00BF80BD00BFED
:10185C006C00002080B400AF00BFBD4680BC704758
:10186C00FFF7F8FF0B480C490C4A002302E0D45850
:10187C00C4500433C4188C42F9D3094A094C0023D0
:10188C0001E013600432A242FBD301F0F9FAFFF736
:10189C00CFFD70470000002028000020182F000802
:1018AC0028000020C8000020FEE7000080B500AF33
:1018BC00084B1B68074A43F010031360032000F029
:1018CC0023F90F2000F008F8FFF74CFF002318460F
:1018DC0080BD00BF0020024080B582B000AF7860B0
:1018EC00124B1A68124B1B7819464FF47A73B3FBE0
:1018FC00F1F3B2FBF3F3184600F03BF90346002B6F
:10190C0001D001230EE07B680F2B0AD800227968E6
:10191C004FF0FF3000F003F9064A7B681360002398
:10192C0000E0012318460837BD4680BD1C0000208E
:10193C00240000202000002080B400AF054B1B7851
:10194C001A46054B1B681344034A136000BFBD467F
:10195C0080BC704724000020C400002080B400AF7D
:10196C00024B1B681846BD4680BC7047C400002063
:10197C0080B485B000AF78607B6803F00703FB6030
:10198C000C4BDB68BB60BA684FF6FF031340BB60BF
:10199C00FB681A02BB68134343F0BF6343F4003384
:1019AC00BB60044ABB68D36000BF1437BD4680BC23
:1019BC00704700BF00ED00E080B400AF044BDB6863
:1019CC001B0A03F007031846BD4680BC704700BFD6
:1019DC0000ED00E080B483B000AF0346FB7197F9D3
:1019EC000730002B0BDBFB7903F01F02064997F93C
:1019FC0007305B09012000FA02F241F8232000BFF6
:101A0C000C37BD4680BC704700E100E080B483B069
:101A1C0000AF03463960FB7197F90730002B0ADBE6
:101A2C003B68DAB20C4997F907301201D2B20B4479
:101A3C0083F800230AE03B68DAB20849FB7903F02B
:101A4C000F03043B1201D2B20B441A7600BF0C37C1
:101A5C00BD4680BC704700BF00E100E000ED00E037
:101A6C0080B489B000AFF860B9607A60FB6803F0AD
:101A7C000703FB61FB69C3F10703042B28BF042395
:101A8C00BB61FB690433062B02D9FB69033B00E005
:101A9C0000237B614FF0FF32BB6902FA03F3DA4398
:101AAC00BB681A407B699A404FF0FF317B6901FAA1
:101ABC0003F3D9437B680B40134318462437BD46C8
:101ACC0080BC704780B582B000AF78607B68013B0A
:101ADC00B3F1807F01D301230FE00A4A7B68013BFD
:101AEC0053600F214FF0FF30FFF790FF054B0022A2
:101AFC009A60044B07221A60002318460837BD462B
:101B0C0080BD00BF10E000E080B582B000AF78600F
:101B1C007868FFF72DFF00BF0837BD4680BD80B544
:101B2C0086B000AF0346B9607A60FB7300237B611B
:101B3C00FFF742FF78617A68B9687869FFF790FF20
:101B4C00024697F90F3011461846FFF75FFF00BFAA
:101B5C001837BD4680BD80B582B000AF0346FB711F
:101B6C0097F907301846FFF735FF00BF0837BD4619
:101B7C0080BD80B582B000AF78607868FFF7A2FFB7
:101B8C00034618460837BD4680BD000080B48BB0B4
:101B9C0000AF7860396000237B6200233B6261E117
:101BAC0001227B6A02FA03F3FB613B681B68FA694A
:101BBC001340BB61BA69FB699A4240F050813B68A3
:101BCC005B68974A93425ED0954A934275D8954A82
:101BDC00934258D0934A93426FD8934A934252D02F
:101BEC00914A934269D8914A93424CD08F4A93427E
:101BFC0063D88F4A934246D08D4A93425DD8122BBC
:101C0C002AD8122B59D801A252F823F0931C0008A1
:101C1C006D1C00087F1C0008C11C0008C71C0008B4
:101C2C00C71C0008C71C0008C71C0008C71C0008FC
:101C3C00C71C0008C71C0008C71C0008C71C0008EC
:101C4C00C71C0008C71C0008C71C0008C71C0008DC
:101C5C00751C0008891C0008764A934213D02CE0AE
:101C6C003B68DB683B6229E03B68DB6804333B6222
:101C7C0024E03B68DB6808333B621FE03B68DB68B1
:101C8C000C333B621AE03B689B68002B02D10423A7
:101C9C003B6213E03B689B68012B05D108233B6238
:101CAC007B68FA691A6109E008233B627B68FA6970
:101CBC005A6103E000233B6200E000BFBB69FF2BCD
:101CCC0001D87B6801E07B6804337B61BB69FF2B27
:101CDC0002D87B6A9B0002E07B6A083B9B003B615D
:101CEC007B691A680F213B6901FA03F3DB431A4045
:101CFC00396A3B6901FA03F31A437B691A603B6842
:101D0C005B6803F08053002B00F0A9804A4B9B6961
:101D1C00494A43F001039361474B9B6903F001036C
:101D2C00BB60BB68454A7B6A9B08023352F8233080
:101D3C00FB607B6A03F003039B000F2202FA03F3A0
:101D4C00DB43FA681340FB607B683D4A93420DD03D
:101D5C007B683C4A934207D07B683B4A934201D153
:101D6C00022304E0032302E0012300E000237A6A4B
:101D7C0002F0030292009340FA681343FB602F4970
:101D8C007B6A9B080233FA6841F823203B685B6846
:101D9C0003F48013002B06D02C4B9A682B49BB699B
:101DAC0013438B6006E0294B9A68BB69DB432749D8
:101DBC0013408B603B685B6803F40013002B06D068
:101DCC00224BDA682149BB691343CB6006E01F4BF9
:101DDC00DA68BB69DB431D491340CB603B685B6829
:101DEC0003F40033002B06D0184B5A681749BB6913
:101DFC0013434B6006E0154B5A68BB69DB43134930
:101E0C0013404B603B685B6803F48033002B1FD09E
:101E1C000E4B1A680D49BB6913430B601FE000BFE2
:101E2C0000003210000031100000221000002110C0
:101E3C0000001210000011100010024000000140C0
:101E4C0000080140000C014000100140000401405A
:101E5C000B4B1A68BB69DB43094913400B607B6A67
:101E6C0001337B623B681A687B6A22FA03F3002B0E
:101E7C007FF496AE00BF00BF2C37BD4680BC7047C8
:101E8C000004014080B485B000AF78600B467B80C5
:101E9C007B689A687B881340002B02D00123FB736C
:101EAC0001E00023FB73FB7B18461437BD4680BC56
:101EBC00704780B483B000AF78600B467B801346CC
:101ECC007B707B78002B03D07A887B681A6103E0E7
:101EDC007B881A047B681A6100BF0C37BD4680BC36
:101EEC007047000080B586B000AF78607B68002B2F
:101EFC0001D1012372E27B681B6803F00103002B04
:101F0C0000F08780924B5B6803F00C03042B0CD021
:101F1C008F4B5B6803F00C03082B12D18C4B5B6866
:101F2C0003F48033B3F5803F0BD1894B1B6803F46A
:101F3C000033002B6CD07B685B68002B68D10123CD
:101F4C004CE27B685B68B3F5803F06D1804B1B6825
:101F5C007F4A43F4803313602EE07B685B68002B70
:101F6C000CD17B4B1B687A4A23F480331360784B7B
:101F7C001B68774A23F4802313601DE07B685B6841
:101F8C00B3F5A02F0CD1724B1B68714A43F480231C
:101F9C0013606F4B1B686E4A43F4803313600BE085
:101FAC006B4B1B686A4A23F480331360684B1B68C5
:101FBC00674A23F4802313607B685B68002B13D083
:101FCC00FFF7CCFC386108E0FFF7C8FC02463B6920
:101FDC00D31A642B01D9032300E25D4B1B6803F475
:101FEC000033002BF0D014E0FFF7B8FC386108E0A8
:101FFC00FFF7B4FC02463B69D31A642B01D90323C7
:10200C00ECE1534B1B6803F40033002BF0D100E0E0
:10201C0000BF7B681B6803F00203002B63D04C4BA2
:10202C005B6803F00C03002B0BD0494B5B6803F08F
:10203C000C03082B1CD1464B5B6803F48033002B3C
:10204C0016D1434B1B6803F00203002B05D07B68B1
:10205C001B69012B01D00123C0E13D4B1B6823F010
:10206C00F8027B685B69DB00394913430B603AE08B
:10207C007B681B69002B20D0364B01221A60FFF7BE
:10208C006DFC386108E0FFF769FC02463B69D31A26
:10209C00022B01D90323A1E12D4B1B6803F0020392
:1020AC00002BF0D02A4B1B6823F0F8027B685B698D
:1020BC00DB00274913430B6015E0264B00221A6006
:1020CC00FFF74CFC386108E0FFF748FC02463B691F
:1020DC00D31A022B01D9032380E11D4B1B6803F09B
:1020EC000203002BF0D17B681B6803F00803002B64
:1020FC003AD07B689B69002B19D0174B01221A60D0
:10210C00FFF72CFC386108E0FFF728FC02463B691E
:10211C00D31A022B01D9032360E10D4B5B6A03F048
:10212C000203002BF0D0012000F09CFA1CE00A4BBB
:10213C0000221A60FFF712FC38610FE0FFF70EFC6B
:10214C0002463B69D31A022B08D9032346E100BF90
:10215C00001002400000424280044242924B5B6AF3
:10216C0003F00203002BE9D17B681B6803F0040326
:10217C00002B00F0A6800023FB758B4BDB6903F072
:10218C008053002B0DD1884BDB69874A43F0805379
:10219C00D361854BDB6903F08053BB60BB680123C3
:1021AC00FB75824B1B6803F48073002B18D17F4B9B
:1021BC001B687E4A43F480731360FFF7CFFB3861D2
:1021CC0008E0FFF7CBFB02463B69D31A642B01D91D
:1021DC00032303E1754B1B6803F48073002BF0D0D1
:1021EC007B68DB68012B06D16F4B1B6A6E4A43F090
:1021FC00010313622DE07B68DB68002B0CD16A4B6A
:10220C001B6A694A23F001031362674B1B6A664A17
:10221C0023F0040313621CE07B68DB68052B0CD1F4
:10222C00614B1B6A604A43F0040313625E4B1B6AEA
:10223C005D4A43F0010313620BE05B4B1B6A5A4A85
:10224C0023F001031362584B1B6A574A23F0040313
:10225C0013627B68DB68002B15D0FFF77FFB3861BE
:10226C000AE0FFF77BFB02463B69D31A41F2883246
:10227C00934201D90323B1E04B4B1B6A03F00203D9
:10228C00002BEED014E0FFF769FB38610AE0FFF792
:10229C0065FB02463B69D31A41F28832934201D95D
:1022AC0003239BE0404B1B6A03F00203002BEED18F
:1022BC00FB7D012B05D13C4BDB693B4A23F0805362
:1022CC00D3617B68DB69002B00F08780364B5B6841
:1022DC0003F00C03082B61D07B68DB69022B46D121
:1022EC00334B00221A60FFF739FB386108E0FFF727
:1022FC0035FB02463B69D31A022B01D903236DE04F
:10230C00294B1B6803F00073002BF0D17B681B6A10
:10231C00B3F5803F08D1244B5B6823F400327B6813
:10232C009B68214913434B601F4B5B6823F4741269
:10233C007B68196A7B685B6A0B431B4913434B60D0
:10234C001B4B01221A60FFF709FB386108E0FFF70D
:10235C0005FB02463B69D31A022B01D903233DE04E
:10236C00114B1B6803F00073002BF0D035E0104BC1
:10237C0000221A60FFF7F2FA386108E0FFF7EEFA74
:10238C0002463B69D31A022B01D9032326E0064BE4
:10239C001B6803F00073002BF0D11EE07B68DB6937
:1023AC00012B07D1012319E00010024000700040FE
:1023BC00600042420B4B5B68FB60FB6803F48032AD
:1023CC007B681B6A9A4206D1FB6803F470127B6827
:1023DC005B6A9A4201D0012300E0002318461837AB
:1023EC00BD4680BD0010024080B584B000AF78605F
:1023FC0039607B68002B01D10123D0E06A4B1B684C
:10240C0003F007033A689A4210D9674B1B6823F014
:10241C00070265493B6813430B60634B1B6803F071
:10242C0007033A689A4201D00123B8E07B681B6825
:10243C0003F00203002B20D07B681B6803F004031D
:10244C00002B05D0594B5B68584A43F4E06353604A
:10245C007B681B6803F00803002B05D0534B5B68AB
:10246C00524A43F460535360504B5B6823F0F002C4
:10247C007B689B684D4913434B607B681B6803F07A
:10248C000103002B40D07B685B68012B07D1474BC5
:10249C001B6803F40033002B15D101237FE07B680C
:1024AC005B68022B07D1414B1B6803F00073002BB8
:1024BC0009D1012373E03D4B1B6803F00203002B91
:1024CC0001D101236BE0394B5B6823F003027B687D
:1024DC005B68364913434B60FFF740FAF8600AE03B
:1024EC00FFF73CFA0246FB68D31A41F2883293425A
:1024FC0001D9032353E02D4B5B6803F00C027B687E
:10250C005B689B009A42EBD1274B1B6803F00703D7
:10251C003A689A4210D2244B1B6823F007022249D6
:10252C003B6813430B60204B1B6803F007033A68AE
:10253C009A4201D0012332E07B681B6803F004034C
:10254C00002B08D0194B5B6823F4E0627B68DB68D6
:10255C00164913434B607B681B6803F00803002B80
:10256C0009D0124B5B6823F460527B681B69DB005B
:10257C000E4913434B6000F021F802460B4B5B688D
:10258C001B0903F00F030A49CB5C22FA03F3094A37
:10259C001360094B1B681846FFF79EF90023184679
:1025AC001037BD4680BD00BF002002400010024025
:1025BC00EC2E00081C0000202000002080B487B006
:1025CC0000AF0023FB600023BB6000237B61002372
:1025DC007B6000233B611E4B5B68FB60FB6803F078
:1025EC000C03042B02D0082B03D027E0194B3B61C2
:1025FC0027E0FB689B0C03F00F03174AD35C7B604E
:10260C00FB6803F48033002B10D0114B5B685B0C20
:10261C0003F00103114AD35CBB607B680D4A03FBDA
:10262C0002F2BB68B2FBF3F37B6104E07B680C4AFB
:10263C0002FB03F37B617B693B6102E0054B3B6171
:10264C0000BF3B6918461C37BD4680BC704700BFB5
:10265C000010024000127A00FC2E00080C2F00081B
:10266C0000093D0080B485B000AF78600A4B1B6850
:10267C000A4AA2FB03235B0A7A6802FB03F3FB60A2
:10268C0000BFFB685A1EFA60002BF9D100BF00BFD7
:10269C001437BD4680BC70471C000020D34D62101F
:1026AC0080B582B000AF78607B68002B01D101232C
:1026BC0041E07B6893F83D30DBB2002B06D17B68A0
:1026CC00002283F83C207868FFF76EF87B680222C2
:1026DC0083F83D207B681A687B68043319461046E2
:1026EC0000F06EFA7B68012283F846207B68012299
:1026FC0083F83E207B68012283F83F207B6801220F
:10270C0083F840207B68012283F841207B680122FA
:10271C0083F842207B68012283F843207B680122E6
:10272C0083F844207B68012283F845207B680122D2
:10273C0083F83D20002318460837BD4680BD0000B5
:10274C0080B485B000AF78607B6893F83D30DBB225
:10275C00012B01D0012335E07B68022283F83D2058
:10276C007B681B68DA687B681B6842F00102DA60E0
:10277C007B681B68164A934209D07B681B68B3F1CF
:10278C00804F04D07B681B68124A934211D17B683E
:10279C001B689B6803F00703FB60FB68062B10D0DB
:1027AC007B681B681A687B681B6842F001021A6020
:1027BC0007E07B681B681A687B681B6842F00102A3
:1027CC001A60002318461437BD4680BC704700BF02
:1027DC00002C01400004004080B582B000AF78604E
:1027EC007B681B681B6903F00203022B22D17B68F8
:1027FC001B68DB6803F00203022B1BD17B681B6890
:10280C006FF002021A617B6801221A777B681B68E1
:10281C009B6903F00303002B03D0786800F0B4F934
:10282C0005E0786800F0A7F9786800F0B6F97B68E5
:10283C0000221A777B681B681B6903F00403042BC6
:10284C0022D17B681B68DB6803F00403042B1BD1CB
:10285C007B681B686FF004021A617B6802221A778E
:10286C007B681B689B6903F44073002B03D078686A
:10287C0000F08AF905E0786800F07DF9786800F0DE
:10288C008CF97B6800221A777B681B681B6903F044
:10289C000803082B22D17B681B68DB6803F0080354
:1028AC00082B1BD17B681B686FF008021A617B68D0
:1028BC0004221A777B681B68DB6903F00303002B87
:1028CC0003D0786800F060F905E0786800F053F9FF
:1028DC00786800F062F97B6800221A777B681B68C5
:1028EC001B6903F01003102B22D17B681B68DB687B
:1028FC0003F01003102B1BD17B681B686FF01002C8
:10290C001A617B6808221A777B681B68DB6903F401
:10291C004073002B03D0786800F036F905E0786836
:10292C0000F029F9786800F038F97B6800221A77F2
:10293C007B681B681B6903F00103012B0ED17B68BC
:10294C001B68DB6803F00103012B07D17B681B6854
:10295C006FF001021A617868FEF79CFE7B681B68B9
:10296C001B6903F08003802B0ED17B681B68DB682E
:10297C0003F08003802B07D17B681B686FF080020B
:10298C001A61786800F06BFA7B681B681B6903F0AE
:10299C004003402B0ED17B681B68DB6803F04003BF
:1029AC00402B07D17B681B686FF040021A61786876
:1029BC0000F0FCF87B681B681B6903F02003202BDC
:1029CC000ED17B681B68DB6803F02003202B07D13A
:1029DC007B681B686FF020021A61786800F036FA89
:1029EC0000BF0837BD4680BD80B584B000AF7860AD
:1029FC0039600023FB737B6893F83C30012B01D1C9
:102A0C000223B4E07B68012283F83C207B6802221D
:102A1C0083F83D207B681B689B68BB60BB6823F018
:102A2C007703BB60BB6823F47F43BB607B681B6888
:102A3C00BA689A603B681B68B3F5005F3ED0B3F58B
:102A4C00005F00F28780B3F5805F00F08680B3F5FD
:102A5C00805F7FD8702B1AD0702B7BD8602B50D016
:102A6C00602B77D8502B3CD0502B73D8402B58D0A0
:102A7C00402B6FD8302B64D0302B6BD8202B60D0F0
:102A8C00202B67D8002B5CD0102B5AD062E07B68CF
:102A9C0018683B6899683B685A683B68DB6800F0CB
:102AAC005EF97B681B689B68BB60BB6843F077036F
:102ABC00BB607B681B68BA689A604FE07B681868DB
:102ACC003B6899683B685A683B68DB6800F047F9DB
:102ADC007B681B689A687B681B6842F480429A602A
:102AEC003CE07B6818683B6859683B68DB681A46B1
:102AFC0000F0BEF87B681B685021184600F015F9F1
:102B0C002CE07B6818683B6859683B68DB681A46A0
:102B1C0000F0DCF87B681B686021184600F005F9B2
:102B2C001CE07B6818683B6859683B68DB681A4690
:102B3C0000F09EF87B681B684021184600F0F5F801
:102B4C000CE07B681A683B681B681946104600F05D
:102B5C00ECF803E00123FB7300E000BF7B6801226B
:102B6C0083F83D207B68002283F83C20FB7B1846D1
:102B7C001037BD4680BD80B483B000AF786000BF15
:102B8C000C37BD4680BC704780B483B000AF786012
:102B9C0000BF0C37BD4680BC704780B483B000AF1B
:102BAC00786000BF0C37BD4680BC704780B483B0E2
:102BBC0000AF786000BF0C37BD4680BC704700008A
:102BCC0080B485B000AF786039607B681B68FB60AF
:102BDC007B68254A934207D07B68B3F1804F03D0C2
:102BEC007B68224A934208D1FB6823F07003FB6098
:102BFC003B685B68FA681343FB607B681A4A934234
:102C0C0007D07B68B3F1804F03D07B68174A93429F
:102C1C0008D1FB6823F44073FB603B68DB68FA68FF
:102C2C001343FB60FB6823F080023B685B69134332
:102C3C00FB607B68FA681A603B689A687B68DA62AA
:102C4C003B681A687B689A627B68074A934203D197
:102C5C003B681A697B681A637B6801225A6100BF62
:102C6C001437BD4680BC7047002C01400004004066
:102C7C0080B487B000AFF860B9607A60FB681B6AFB
:102C8C007B61FB681B6A23F00102FB681A62FB681C
:102C9C009B693B613B6923F0F0033B617B681B0143
:102CAC003A6913433B617B6923F00A037B617A69C0
:102CBC00BB6813437B61FB683A699A61FB687A696C
:102CCC001A6200BF1C37BD4680BC704780B487B009
:102CDC0000AFF860B9607A60FB681B6A7B61FB68C7
:102CEC001B6A23F01002FB681A62FB689B693B614C
:102CFC003B6923F470433B617B681B033A691343C4
:102D0C003B617B6923F0A0037B61BB681B017A6983
:102D1C0013437B61FB683A699A61FB687A691A62B2
:102D2C0000BF1C37BD4680BC704780B485B000AF77
:102D3C00786039607B689B68FB60FB6823F07003EC
:102D4C00FB603A68FB68134343F00703FB607B6846
:102D5C00FA689A6000BF1437BD4680BC704780B4D7
:102D6C0087B000AFF860B9607A603B60FB689B6825
:102D7C007B617B6923F47F437B613B681A027B6830
:102D8C001A43BB6813437A6913437B61FB687A6906
:102D9C009A6000BF1C37BD4680BC704780B485B0BC
:102DAC0000AF786039607B6893F83C30012B01D11F
:102DBC00022341E07B68012283F83C207B680222DD
:102DCC0083F83D207B681B685B68FB607B681B6835
:102DDC009B68BB60FB6823F07003FB603B681B685F
:102DEC00FA681343FB607B681B68FA685A607B685F
:102DFC001B68144A934209D07B681B68B3F1804F5F
:102E0C0004D07B681B68104A93420CD1BB6823F03A
:102E1C008003BB603B685B68BA681343BB607B682C
:102E2C001B68BA689A607B68012283F83D207B6836
:102E3C00002283F83C20002318461437BD4680BC82
:102E4C00704700BF002C01400004004080B483B0E8
:102E5C0000AF786000BF0C37BD4680BC704780B4B3
:102E6C0083B000AF786000BF0C37BD4680BC7047A4
:102E7C0003460244934200D1704703F8011BF9E763
:102E8C0070B500260C4D0D4C641BA410A64209D144
:102E9C0000F01AF800260A4D0A4C641BA410A64236
:102EAC0005D170BD55F8043B98470136EEE755F84F
:102EBC00043B98470136F2E7102F0008102F00084A
:102ECC00102F0008142F0008F8B500BFF8BC08BC80
:102EDC009E467047F8B500BFF8BC08BC9E467047CC
:102EEC0000000000000000000102030406070809AE
:102EFC0002030405060708090A0B0C0D0E0F10102F
:042F0C0001020000BE
:042F10003101000883
:042F14000D010008A3
:102F1800C8000000030000000100000005000000D8
:102F28000300000005000000010000000024F40078
:082F3800100000000100000080
:040000050800186D6A
:00000001FF
